:020000040800F2
:10000000280C002029020008631E0008931900082C
:10001000611E000843050008952A00080000000042
:10002000000000000000000000000000A123000804
:1000300045050008000000009F23000899240008DF
:10004000430200084302000843020008430200087C
:10005000430200084302000843020008430200086C
:10006000430200084302000843020008430200085C
:10007000430200084302000843020008430200084C
:10008000430200084302000843020008430200083C
:10009000430200084302000843020008430200082C
:1000A000430200084302000843020008430200081C
:1000B000430200084302000843020008430200080C
:1000C00043020008430200084302000843020008FC
:1000D00043020008892A000843020008430200087E
:1000E00043020008430200084302000843020008DC
:1000F00043020008430200084302000843020008CC
:1001000043020008430200084302000843020008BB
:1001100043020008430200084302000843020008AB
:10012000430200084302000843020008430200089B
:10013000430200084302000843020008430200088B
:10014000430200084302000843020008430200087B
:10015000430200084302000843020008430200086B
:10016000430200084302000843020008430200085B
:100170004302000843020008430200080000000098
:10018000430200084302000800F002F800F03CF8C7
:100190000AA090E8000C82448344AAF10107DA45E2
:1001A00001D100F031F8AFF2090EBAE80F0013F0F8
:1001B000010F18BFFB1A43F0010318474435000034
:1001C00064350000103A24BF78C878C1FAD85207C5
:1001D00024BF30C830C144BF04680C6070470000C1
:1001E0000023002400250026103A28BF78C1FBD840
:1001F000520728BF30C148BF0B6070471FB502F0DF
:1002000089FC1FBD10B510BD00F066F91146FFF75F
:10021000F5FF02F051FC00F084F903B4FFF7F2FFA0
:1002200003BC00F087F900000948804709480047EF
:10023000FEE7FEE7FEE7FEE7FEE7FEE7FEE7FEE796
:10024000FEE7FEE704480549054A064B70470000F3
:10025000352500088901000828060020280C002008
:10026000280800202808002053EA020C00F06980CA
:100270002DE9F04B4FF00006002B1FBFB3FA83F5BA
:1002800003FA05F424FA05F65E4012BF1643B2FAEB
:1002900082F502FA05F4C5F120051EBF22FA05FC1D
:1002A00044EA0C04203556EA044C4FEA144418BFC3
:1002B000641C4FF000084FF00009904271EB030CF2
:1002C00039D3002919BFB1FA81F701FA07F6B0FA5C
:1002D00080F700FA07F6C7F120071EBF20FA07FCD7
:1002E00046EA0C062037B6FBF4FCA7EB0507103FE7
:1002F00007F01F0BCBF120060CFA0BFB2CFA06F6CD
:1003000044BFB3460026202FA4BF5E464FF0000B2B
:100310005BEA060C08BF4FF0010B19EB0B09ABFBB6
:10032000027C48EB0608C01B06FB02CC0BFB03CC8F
:1003300071EB0C01C1E70B46024641464846BDE859
:10034000F08B13B54FF000004FF00001AFF30080C9
:10035000BDE81C40704710B5431C02E010F8011BBB
:1003600071B18107FAD14FF0013202C88C1A8C4367
:1003700014EAC211F9D0C01A0A0603D0C01E10BD7B
:10038000C01A10BD0A0401D0801E10BD0902FCD0A5
:10039000401E10BD10B5203AC0F00B80B1E81850D7
:1003A000203AA0E81850B1E81850A0E81850BFF45F
:1003B000F5AF5FEA027C24BFB1E81850A0E81850FE
:1003C00044BF18C918C0BDE810405FEA827C24BF52
:1003D00051F8043B40F8043B08BF7047D20728BFE0
:1003E00031F8023B48BF11F8012B28BF20F8023B2F
:1003F00048BF00F8012B70474FF0000200B51346CC
:1004000094469646203922BFA0E80C50A0E80C5034
:10041000B1F12001BFF4F7AF090728BFA0E80C50E5
:1004200048BF0CC05DF804EB890028BF40F8042BDE
:1004300008BF704748BF20F8022B11F0804F18BF4B
:1004400000F8012B704700004FF0013C50F8042BDE
:1004500051F8043B9A4221D1A2EB0C03934313EAD7
:10046000CC1317D150F8042B51F8043B9A4215D104
:10047000A2EB0C03934313EACC130BD150F8042BDB
:1004800051F8043B9A4209D1A2EB0C03934313EABF
:10049000CC13DBD04FF00000704700BFD01A01BA78
:1004A000B1FA81F101F0180122FA01F0CB40C1F15B
:1004B0002001DBB2C0B2C01A2CFA01F3D11A914369
:1004C00011EAC311E6D170477047704770470000CA
:1004D00000487047C80500207546FFF7F9FFAE4693
:1004E00005006946534620F00700854618B020B540
:1004F000FFF7A8FEBDE820404FF000064FF00007D0
:100500004FF000084FF0000B21F00701AC46ACE8BB
:10051000C009ACE8C009ACE8C009ACE8C0098D4628
:10052000704710B50446AFF300802046BDE8104088
:10053000FFF773BE01491820ABBEFEE7260002009C
:100540007047FEE77047000001490020487070477F
:100550000000002001490020C87070470000002002
:1005600001488078704700000000002030B58DB051
:100570000C46050015D0002C13D049218DF8001031
:1005800050218DF801103A218DF802102D220649D4
:100590000DF1030001F048FF22466946284601F0AC
:1005A00043FF0DB030BD0000A0010020002805D0A1
:1005B000002903D00A46024901F036BF7047000007
:1005C000060000200148407870470000000000202D
:1005D0000148C07870470000000000202DE9F0417C
:1005E000304800F06BF82F482FA101F031FF0021B7
:1005F0002E4A0E46012478B12A4B8033C01C02E0FB
:100600005D54491C89B2455C1DB12C2D01D02729B0
:10061000F6D35E5401B1D470224D25A3002001E031
:10062000401C80B2195C0029FAD100281CD0002798
:1006300017E000210AE000BF07EB010C13F801E00E
:1006400015F80CC0F44503D1491C89B28142F3D39B
:10065000814204D1547096700021124814E07F1C2E
:10066000BFB2E95D0029E4D1BDE8F081522B09D188
:1006700043185C78492C05D19C784E2C02D1DB784C
:10068000472B05D0491C89B2435C002BEED1EBE728
:1006900008440079A0F131010229E5D83038907082
:1006A000E2E700002001002049503A00000000204D
:1006B0004556454E543A52494E47000010B515A1D3
:1006C00001F0C6FE002824D010F8051F3039092992
:1006D0001FD8417830291CD339291AD881783A2972
:1006E00017D1C178302914D3392912D8017930298A
:1006F0000FD339290DD8094A0021435C5354491CB2
:1007000089B20529F9D30020507104490120891FBD
:10071000C87010BD54494D453A0000000600002045
:1007200002490020888002490870704700000020BC
:100730002001002010B594B0202215A10CA8FFF7CD
:1007400029FE002002460CAB694604E00C54401C14
:10075000521C80B292B29C5C002CF7D1144A927861
:10076000531E022B01D8303200E030220A54401CC4
:1007700080B20D220A54401C80B20A220A54401C46
:1007800082B264230B4801F0B3F814B010BD00002E
:1007900053544D33323A434D443A52454D494E44F9
:1007A0005F54414B455F4D45442C534C4F543A00E8
:1007B000000000209000002010B5FFF7B1FF0D48A9
:1007C000002141708170C17006220BA1801D01F0D3
:1007D0002BFE28220AA10B4801F026FE0122054922
:1007E000094801F045F8002803D0BDE8104000F0AA
:1007F0000DB810BD000000202D2D3A2D2D00000059
:100800002D2D2D00A00100209000002072B6FEE7E3
:100810002DE9F0410446876D00F06AF9064694F828
:1008200035000025022806D08020606584F8345009
:100830000120BDE8F0812068016821F01601016007
:100840002068416921F080014161206C08B9A06CE9
:1008500020B12068016821F008010160206801686A
:1008600021F0010101600CE000F042F9801B052835
:1008700007D920206065032084F8350084F83450BF
:10088000D7E720680068C007EED194F85C103F20DD
:100890008840B860012084F8350084F83450002086
:1008A000C7E790F83510022903D080214165012067
:1008B0007047052180F835100068016821F00101BA
:1008C000016000207047000070B5044600F010F988
:1008D0000546601C02D004480078044400F008F982
:1008E000401BA042FAD370BD380000202DE9F84F1C
:1008F000DFF8BCA10022012503264FF00F090AF101
:10090000040BAAF1040E00BF0B6805FA02F42340A1
:10091000A34270D10F7907F00307012F01D0022FF6
:1009200016D187684FEA420806FA08FC27EA0C0746
:10093000D1F80CC00CFA08FC4CEA070CC0F808C04F
:100940004768A7430C79C4F3001494403C434460C7
:100950000C79E443A4070AD0C4684FEA420C06FAB3
:100960000CF7BC438F6807FA0CF72743C7600C7974
:1009700004F00304022C12D1D40800EB840CDCF840
:1009800020405707FF0E09FA07F824EA0804D1F8B7
:10099000108008FA07F848EA0408CCF820800468B8
:1009A0004FEA420C06FA0CF7BC430F7907F0030735
:1009B00007FA0CF7274307604C6814F4403F70D0E7
:1009C0003C4C276847F480472760246822F00307DF
:1009D00004F480440094384C07EB040CDCF808481D
:1009E00097074FEA177809FA08F7BC43334FB84224
:1009F00002D1002724E054E0314FB84201D1012751
:100A00001EE0304FB84201D1022719E02E4FB84204
:100A100001D1032714E02D4FB84201D104270FE084
:100A20002B4FB84201D105270AE02A4FB84201D125
:100A3000062705E0284FB84201D1072700E0082724
:100A400007FA08F72743CCF80878DAF80040574649
:100A5000D1F804C09C435FEACC2C00D51C433C6019
:100A6000DBF800405F46D1F804C09C435FEA8C2C61
:100A700000D51C433C60DEF800407746D1F804C046
:100A80009C435FEA8C3C00D51C433C60084F083F08
:100A90003C68D1F804C09C435FEACC3C00D51C43C1
:100AA0003C60521C102AFFF42FAFBDE8F88F000005
:100AB000083C014044380240003001400000024040
:100AC0000004024000080240000C024000100240F6
:100AD0000014024000180240001C02400069084057
:100AE00000D0012070470AB1816170470904FBE71B
:100AF0000148806870470000380000200248816883
:100B00000278114481607047380000200B4810B50E
:100B1000016841F400710160016841F48061016085
:100B2000016841F480710160032000F06FF80F202C
:100B300000F006F800F024F8002010BD003C024050
:100B400070B50D4D04464FF47A712878B1FBF0F082
:100B50000A490968B1FBF0F000F00AFB48B9102C13
:100B600007D200222146501E00F030F800206C60B1
:100B700070BD012070BD000038000020440000203E
:100B80000A4808B5016841F480410160006800F43A
:100B9000804000900548001F016841F080510160CD
:100BA000006800F08050009008BD0000443802400A
:100BB000002809DB00F01F0201219140400980005C
:100BC00000F1E020C0F8001170470000F0B40E4BB7
:100BD0001B680C46C3F30223C3F10705042D00D99B
:100BE0000425191D072901D2002300E0DB1E012680
:100BF00006FA05F1491E214099409E40761E164096
:100C00003143F0BC01F047BF0CED00E0064900F0B5
:100C1000070208684FF6FF03184040EA0220034A23
:100C200010430860704700000CED00E00000FA057A
:100C30002DE9F0470E46050065D0DFF81481D8F89D
:100C40000000F7B200F00700B04207D288F8007049
:100C5000D8F8000000F00700B04254D128683D4C9D
:100C6000810712D5400703D5206840F4E05020608A
:100C70002878000703D5206840F460402060206891
:100C8000A96820F0F000084320602878C0072DD024
:100C9000304968680839012812D0022813D0032887
:100CA00011D00968890700292DDA216821F0030194
:100CB00001432160FFF71CFF814641F2883A0EE0B4
:100CC00009688903EFE709688901ECE7FFF710FF7E
:100CD000A0EB0901514502D90320BDE8F087206847
:100CE000696800F00C00B0EB810FEFD1D8F800106C
:100CF000404601F00701B14207D90770006800F0D3
:100D00000700B04201D00120E7E72878400705D569
:100D10002068E96820F4E050084320602878000744
:100D200006D52068296920F4604040EAC1002060AF
:100D300000F038F82168084AC1F30311515CC8403B
:100D40000649086006480068FFF7FAFE0020C4E77D
:100D5000003C024008380240822B0008440000207A
:100D60003C0000200448054900680968044AC1F3B2
:100D70008221515CC840704744000020083802407E
:100D8000922B00080448054900680968044AC1F329
:100D90004231515CC840704744000020083802408E
:100DA000922B0008154810B5006810F00C0214488A
:100DB00013D04110042A0FD0082A0ED10F4C241F43
:100DC0002268236802F03F025B0207D52068C0F367
:100DD0008810A0FB010106E0084610BD2168C1F3A0
:100DE0008811A1FB00010023FFF73EFA2168C1F33F
:100DF0000141491C4900B0FBF1F010BD0838024028
:100E00000024F4002DE9F84F04006ED02078DFF8BC
:100E10004C93C007A9F104054AD009F10400016808
:100E2000C1F38101012908D00068C0F381000228C4
:100E30000AD1D9F80000400206D52868800337D5CA
:100E400060680028E1D033E06068B0F5803F10D0E2
:100E5000B0F5A02F286810D020F4803028602868D2
:100E600020F4802028606068A8B1FFF741FE0646A4
:100E70000DE0286840F48030F4E740F480202860DA
:100E8000F7E700BFFFF734FE801B642873D828689B
:100E90008003F7D50CE0FFF72BFE064605E000BF08
:100EA000FFF726FE801B6428F0D828688003F7D45B
:100EB0002078DFF8AC8280074FF0000A3ED5A748C3
:100EC000001D016811F00C0F08D00068C0F381000C
:100ED00002280BD1D9F80000400207D42868800707
:100EE00016D5E068012800D112E033E1E068B8B11E
:100EF0000120C8F80000FFF7FBFD064605E000BF33
:100F0000FFF7F6FD801B0228C0D828688007F7D5B8
:100F10002868216920F0F80040EAC10028600DE04F
:100F2000C8F800A0FFF7E4FD064604E0FFF7E0FD87
:100F3000801B02281FD828688007F7D42078000774
:100F400022D5864F87486169703771B101210160F0
:100F5000FFF7CEFD064604E0FFF7CAFD801B02281E
:100F600009D838688007F7D50EE0C0F800A0FFF771
:100F7000BFFD064605E082E0FFF7BAFD801B0228B0
:100F80007DD838688007F7D42078400768D5DFF827
:100F9000CCB100270BF13C0BDBF80000C0000BD4F8
:100FA000DBF8001041F08051CBF80010DBF80000B6
:100FB000012700F0805000906B4E3068C00510D4BF
:100FC000306840F480703060FFF792FD009005E0DB
:100FD000FFF78EFD0099401A022850D83068C005EE
:100FE000F6D55E4EA0686C3601280FD00528306813
:100FF00010D020F001003060306820F00400306034
:10100000A068B8B1FFF774FD00900FE0306840F0C1
:101010000100F4E740F004003060F7E7FFF768FDF7
:101020000099411A41F28830814266D830688007C1
:10103000F4D50EE0FFF75CFD009007E0FFF758FDE8
:101040000099411A41F28830814256D830688007B1
:10105000F4D42FB1DBF8001021F08051CBF8001050
:10106000A069C8B33D49091D0968C1F3810102297E
:101070004AD00228504607D0C8F8600000E03CE0A3
:10108000FFF736FD04463BE04746C8F86000FFF72F
:101090002FFD064605E000BFFFF72AFD801B022852
:1010A0002BD828688001F7D4D4E907010843A16A46
:1010B0002E4A490802EB0141626A41EA8211084363
:1010C00094F82C1040EA0161C9F80010012038663C
:1010D000FFF70EFD044606E03EE000BFFFF708FD07
:1010E000001B022809D828688001F7D534E000BF2A
:1010F000FFF7FEFC001B022802D90320BDE8F88F91
:1011000028688001F4D427E00128F7D0D9F800003E
:10111000E26900F4800191421CD1226A00F03F0193
:10112000914217D147F6C071626A0140B1EB821F4C
:1011300010D1A26A4FF0FF3300F4403103EB5202AA
:10114000B1EB024F06D194F82C1000F07060B0EBB8
:10115000016F01D00120D1E70020CFE70438024021
:1011600000004742800E4742007000400000FFFF31
:1011700010B5401EB0F1807F01D3012010BD4FF0AB
:10118000E02460610F21601701F085FC0020A06160
:1011900007202061002010BD70B590F83C20012A86
:1011A00032D0012480F83C40022280F83D200368C0
:1011B0005A689D6822F070060A6832435A60134BE1
:1011C00002689A4214D0B2F1804F11D0104B9A426B
:1011D0000ED0104B9A420BD00F4B9A4208D00F4BB7
:1011E0009A4205D00E4B9A4202D00E4B9A4204D13D
:1011F000496825F080031943916080F83D40002143
:1012000080F83C10084670BD022070BD000001400F
:101210000004004000080040000C004000040140B1
:10122000004001400018004010B586B0044614216B
:101230006846FFF7E1F82068B0F1804F15D10C48FF
:101240000021026842F001020260006800F0010023
:101250000590072000900220CDE901010120CDE991
:10126000031069460348FFF741FB06B010BD0000BC
:10127000303802400000024070B5044690F83C004F
:1012800000260D4601280FD0012084F83C006AB1E9
:10129000042A1DD0082A2FD00C2A3FD00126002076
:1012A00084F83C00304670BD022070BD206801F01B
:1012B000BFF92068816941F0080181612068816976
:1012C00021F004018161206881692A69114311E0DC
:1012D000206801F0DDF92068816941F400618161D5
:1012E0002068816921F480618161206881692A69AF
:1012F00041EA02218161D2E7206801F0FFF920680C
:10130000C16941F00801C1612068C16921F004018F
:10131000C1612068C1692A69114311E0206801F0A8
:1013200021FA2068C16941F40061C1612068C16986
:1013300021F48061C1612068C1692A6941EA022102
:10134000C161ACE710B5040003D094F83D0010B1C2
:1013500007E0012010BD002084F83C00204600F08A
:101360001FF8022084F83D00211D206801F0EAF8F2
:10137000012084F8460084F83E0084F83F0084F899
:10138000400084F8410084F8420084F8430084F867
:10139000440084F8450084F83D00002010BD0000A2
:1013A00008B50068B0F1804F08D10548016841F0E8
:1013B00001010160006800F00100009008BD00001C
:1013C0004038024010B50446022249B104290ED02B
:1013D000082913D094F84100012816D0012010BD2F
:1013E00094F83E000128F9D184F83E200FE094F8EB
:1013F0003F000128F2D184F83F2008E094F8400033
:101400000128EBD184F8402001E084F8412001223A
:10141000206801F0FFF816492068164A884201D07A
:10142000904203D1436C43F40043436420688842F4
:1014300013D0B0F1804F10D00F4988420DD00F4922
:1014400088420AD00E49884207D0904205D00D4903
:10145000884202D00C49884204D1816801F007011A
:10146000062903D0016841F001010160002010BD90
:10147000000001400004014000040040000800405A
:10148000000C004000400140001800407047000080
:1014900000680A4982B088420ED101684168009113
:1014A0000168416800910168406800900122044988
:1014B000044802B000F0DCB902B0704700100140EF
:1014C0000000002090000020F8B50168044608687C
:1014D000CA684B6910F00F0F4FF0000559D003F0A8
:1014E000010602F49077374365D0C10705D0D105D6
:1014F00003D5616C41F001016164410705D5D9074D
:1015000003D0616C41F002016164810705D5D90700
:1015100003D0616C41F004016164010707D502F05A
:101520002001314303D0616C41F008016164616CBA
:1015300000293AD0800604D5900602D5204601F055
:1015400067F920684069616CC0F38010090700D416
:1015500060B3204601F035F920684069400621D586
:101560002068143050E8001F21F0400140E80012CC
:10157000002AF5D1E06BA8B172490165E06BFFF775
:1015800090F9002811D0E06B016D01B0BDE8F0408A
:10159000084783060FD593060DD52046BDE8F840D1
:1015A00001F036B92046FFF773FFF8BD2046FFF77C
:1015B0006FFF6564F8BD266B2023012E7ED1C60621
:1015C0007CD5D6067AD508684868009048694FF0FF
:1015D000020640064DD5E26B106840684FF48077F4
:1015E0000004000C3AD0A18D814237D9E085D06942
:1015F000B8422DD020680C3050E8001F21F48071D3
:1016000040E80012002AF5D12068143050E8001F8D
:1016100021F0010140E80012002AF5D120681430C1
:1016200050E8001F21F0400140E80012002AF5D1E7
:1016300084F84230256320680C3050E8001F21F008
:10164000100140E80012002AF5D1E06BFFF7E0F846
:101650006663A08DE18D401A81B206E0A18D8142C2
:10166000A8D1D069B842A5D166632046FFF70EFF26
:10167000F8BDA08DE18D401A81B2E08D0028F7D031
:101680000029F5D020680C3050E8002F22F4907229
:1016900040E80027002FF5D12068143050E8002FD3
:1016A00022F0010240E80027002FF5D184F84230F3
:1016B000256320680C3050E8002F00E006E022F09F
:1016C000100240E80023002BF3D1CDE705062BD50F
:1016D000150629D594F841002128C9D1A068B0F594
:1016E000805F01D12069B0B1206A411C216221686C
:1016F00000784860E08C401E0004000CE084B7D104
:101700002068C16821F08001C1602068C16841F093
:101710004001C160F8BD206A0088C0F3080048603D
:10172000206A801C2062E5E74006F3D55006F1D51B
:10173000CA68204622F04002CA6084F8413000F0B6
:1017400027F9F8BDB527000870B5040004D094F857
:101750004100002510B106E0012070BD84F8405022
:10176000204600F023F8242084F841002068C16856
:1017700021F40051C160204601F0ACF820680169F5
:1017800021F4904101612068416921F02A01416101
:101790002068C16841F40051C1606564202084F86C
:1017A000410084F842006563002070BD70B586B0CA
:1017B000044614216846FEF71FFE284E22680021C9
:1017C0002748022303240725B24225D1244A143294
:1017D000166846F010061660126802F010020592B4
:1017E000026842F001020260006802AA00F00100F3
:1017F000059082E832006002CDE90003694619488D
:10180000FFF774F8002211462520FFF7DFF92520A5
:10181000FFF7CEF906B070BD134EB242FAD1104AAE
:101820001032166846F480261660126802F4802290
:101830000592026842F002020260006802AA00F00B
:101840000200059082E832004FF44060CDE90003C9
:1018500069460648FFF74AF8DCE70000001001403F
:1018600030380240000002400048004000040240BE
:1018700090F84230202B01D00220704721B11AB1DC
:101880000023036301F0ACB80120704710B5006875
:101890001349884223D1134A1146107889880A28AF
:1018A00007D00D2805D07F2907D300BFFEF738FFEA
:1018B0000AE049B1FEF792FEF8E70B4B5854491C79
:1018C00088B2908000211954012206490748FFF789
:1018D000CFFF002803D0BDE81040FEF797BF10BD32
:1018E0000010014000000020200100209000002096
:1018F0002DE9F843044690F84100984616460D46F7
:10190000202802D00220BDE8F88385B17EB10020F6
:101910006064212084F84100FFF7EAF8A68481463C
:10192000E684A0682027B0F5805F02D003E00120A4
:10193000E9E7206910B12E4600250EE000260CE0F4
:101940008021204601F067F8A8B9C6B116F8010B4E
:1019500021684860E08C401EE084E08C4B464FF0EC
:101960000002CDF800800028EAD14FF04001204667
:1019700001F051F840B184F841700320C3E735F815
:10198000020BC0F30800E3E784F841700020BAE7D7
:101990007047FEE710B50146022000F07BF8BDE875
:1019A00010400A20FEF790BF10B500F071F84FF418
:1019B000FA70FEF789FF1921132000F02FF8BDE817
:1019C00010400A20FEF780BF1CB504A1D1E9000138
:1019D000CDE900016846FFF7DDFF1CBD2F30303038
:1019E000303100001CB504A1D1E90001CDE90001AE
:1019F0006846FFF7CFFF1CBD2F303030303200007B
:101A00001CB504A1D1E90001CDE900016846FFF74A
:101A1000C1FF1CBD2F303030303300001CB51A4BD5
:101A20000728D3E90323CDE900238DF8010013D063
:101A3000192811D022280FD023280DD001228DF88B
:101A400002208DF803109DF80020491C1044084422
:101A50008DF8040005220FE002228DF802200022FA
:101A60008DF803209DF800208DF804101044801C90
:101A700008448DF8050006224FF6FF7369460348B7
:101A8000FFF736FF1CBD0000702B0008D8000020B7
:101A90007047000070B58EB00D46064630216C468A
:101AA00001A8FEF7A9FC1B48806800902846FEF7B5
:101AB00052FC401D8DF802008DF80360042003E005
:101AC0002154401CC0B26D1C29780029F8D12A216C
:101AD0002154401CC0B23F212154401CC0B22154AB
:101AE000401CC0B22154401CC0B20021215405E06A
:101AF000635C225C491C1A442254C9B28142F7D368
:101B0000401CC2B24FF6FF7369460348FFF7F0FE70
:101B10000EB070BD702B0008D8000020F0B587B063
:101B200014216846FEF768FC14480026016841F05D
:101B3000040101600068124F00F0040005900120CC
:101B4000CDE901603446039604EB440007EB8005C1
:101B5000A988009157F820006946FEF7C7FE204685
:101B600000F032F8E871AE71FEF7C2FF641CE4B217
:101B7000A860032CE8D307B0F0BD00003038024065
:101B80000C00002070B5401E032801D3002070BD5A
:101B9000C5B2284600F018F80446FEF7A9FF094927
:101BA00005EB450201EB8201CA79A24202D0CC7159
:101BB000886004E08A68801A1E2800D38C718879B6
:101BC00070BD00000C00002000EB4002064810B57C
:101BD00000EB820150F822008988FEF77FFF08B1F0
:101BE000002010BD012010BD0C00002030B587B0D2
:101BF00014216846FEF700FC19480024016841F0F2
:101C000080010160016801F080010591016841F0E7
:101C100004010160016801F004010591016841F0CF
:101C200001010160016801F001010591016841F0C5
:101C30000201016000680B4D00F0020005900022D7
:101C400003212846FEF74FFF032000900120CDE935
:101C50000104694628460394FEF748FE07B030BDEC
:101C6000303802400008024010B58AB000240794C2
:101C70001C2168460894FEF7BFFB1F484FF08041C7
:101C8000016040F24731C0E9011440F2CF71C0E970
:101C900003148461FFF756FB08B1FEF7B7FD079404
:101CA00007A915480894FFF777FA08B1FEF7AEFDCB
:101CB000602000903220CDE90104002269460E48E0
:101CC0000494FFF7D9FA08B1FEF7A0FD0422694693
:101CD0000948FFF7D1FA08B1FEF798FD08226946D6
:101CE0000548FFF7C9FA08B1FEF790FD0248FFF773
:101CF0009BFA0AB010BD0000480000200C4810B547
:101D00000A4901604FF416514160002181600C22A4
:101D1000C160C0E904128161C161FFF715FD0028AF
:101D200003D0BDE81040FEF771BD10BD00100140AA
:101D3000900000200C4810B50A4901604FF416517C
:101D40004160002181600C22C160C0E90412816100
:101D5000C161FFF7F9FC002803D0BDE81040FEF791
:101D600055BD10BD00480040D800002003480021A8
:101D700001704170416081707047000030000020A8
:101D80002DE9F041234C00260127207880B16078AE
:101D9000FFF7F8FE48B30021607800F029FB01202E
:101DA00000F03AF8FFF72CFE26706670BDE8F0816F
:101DB000FEF708FC0028F9D0FEF7D2FB0546FEF737
:101DC000C3FB681E032800D3012565705A212846ED
:101DD00000F00EFB002000F01FF8FFF7F5FDFEF706
:101DE00087FE6060A6702770E0E7A0780028DDD14C
:101DF000FEF77EFE6168401A47F230518842D5D323
:101E0000FEF798FC022000F007F8FFF7EBFDA77043
:101E1000CCE700003000002010B50446002120234C
:101E20008022084600F032F8012C10D0022C11D08C
:101E30000A4A0021084600F04DF9002120238022A3
:101E4000084600F03BFABDE8104000F0FFB9034A35
:101E50001032EEE7014A2032EBE700003A2B00088F
:101E6000FEE7FEE710B50021074C0A46002004EB10
:101E7000C1131A54401CC0B28028FAD3491CC9B2FD
:101E80000829F3D310BD0000C8010020F0B50B44B1
:101E900024E0044685181DE07F2C19D8002917DBA3
:101EA0003F2915DCCE1701EB56764FEAE60C0D4FB5
:101EB00026F0070607EBCC172744A1EB060E97F890
:101EC00000C0012606FA0EF62CEA060C87F800C0C0
:101ED000641C24B2A542DFDC491C09B28B42D8DC69
:101EE000F0BD0000C801002010B586B000214FF4FD
:101EF0007A720020401C9042FCD3491C9142F8D3D6
:101F000013480024016841F00201016000681421B7
:101F100000F0020005906846FEF76EFA1120CDE948
:101F200001040320039040200A4C0090694620469B
:101F3000FEF7DCFC8020009069462046FEF7D6FCC8
:101F4000012000F0EBF9012000F0F4F906B010BD1B
:101F5000303802400004024008B550200090411E75
:101F6000009101D30846FAE708BD70B50024064683
:101F7000802525FA04F0304000D0012000F0DAF985
:101F8000012000F0CBF9002000F0C8F9641CE4B295
:101F9000082CEED3012000F0C1F9BDE8704000200C
:101FA00000F0BCB910B5012000F0C4F9012000F028
:101FB000B5F9002000F0BEF9BDE81040002000F0A7
:101FC000ADB910B5002000F0B5F9012000F0A6F978
:101FD000BDE81040012000F0ADB910B5FFF784FF57
:101FE000AE2000F0B3F9D52000F0B0F9802000F069
:101FF000ADF9A82000F0AAF93F2000F0A7F9D320FE
:1020000000F0A4F9002000F0A1F9402000F09EF9B2
:10201000A12000F09BF9C82000F098F9DA2000F028
:1020200095F9122000F092F9812000F08FF9CF206D
:1020300000F08CF9D92000F089F9F12000F086F940
:10204000DB2000F083F9302000F080F9A42000F0BC
:102050007DF9A62000F07AF98D2000F077F91420A0
:1020600000F074F9AF2000F071F9FFF7FBFEBDE856
:10207000104000F00FB910B50C4640F0B00000F071
:1020800065F9102040EA141000F060F904F00F0028
:10209000BDE8104000F05AB908B5082B0DD0062B4A
:1020A0000AD10A4B02EB420203EB4202C03A009211
:1020B0000823062200F052F808BD054B03EB02127C
:1020C000A2F50072102300920822F3E78A3100087B
:1020D0009A2B00082DE9FC5F002490468B4682462F
:1020E0002546DFF8709001942EE001A90855641C84
:1020F000E4B2032C26D30024264606E0384601A984
:10210000FEF7A2F958B1761CF6B206EBC60109EB50
:102110008100074610A1FEF797F90028EED1681C50
:102120000321B0FBF1F10AEB011006EBC60209EB4B
:102130008201091D10381023009100B21A46594639
:1021400000F00CF86D1CEDB218F805000028CCD199
:10215000BDE8FC9FC4330008000000002DE9F04FEB
:102160001F4616460C4682460025FFF78FFE7F1E4F
:10217000F81707EB50700121DFF89CB001EBE00786
:1021800045E000203FE000BF0AEB00037F2B38D87A
:10219000E11704EB5171CA1021F00701611A002CFC
:1021A00003DA521E083112B209B202EB0509B9F185
:1021B000070F10D80BEBC91E1EF8032015FB06F8FD
:1021C000DDF824C0844418F80CC00CFA01FC42EA83
:1021D0000C020EF8032009F10102072A11D80BEBBB
:1021E000C91202EB030898F8803015FB06FC099A27
:1021F000C1F1080102441CF80220CA40134388F8C8
:102200008030401CC0B2B042BED36D1CEDB2AF42B4
:10221000B7DCBDE8F08F0000C80100202DE9F041D7
:102220001E46154688460746002408E014FB067043
:1022300000B233464146FFF72FFF641CE4B22A5D2B
:10224000002AF3D1BDE8F081AFF3008000B5202370
:102250008BB0802219460020FFF718FE282168461F
:10226000FEF7A4F908236A4620210020FFF7D6FFD5
:1022700028216846FEF77AF906236A4630210020B5
:10228000FFF7CCFF202380221946002000F016F82B
:102290000BB000BD70B5084D002400212046FFF7AB
:1022A000EAFE05EBC410802100F061F8641CE4B282
:1022B000082CF2D370BD0000C80100202DE9F041C8
:1022C0000646C81701EB5070C410C8189046401E4F
:1022D000C21700EB5270012202EBE00005B20029A8
:1022E00002DA6D1E2DB2641E0B4F11E07F2E0DD849
:1022F000002C0BDB072C09DCF1B2E0B2FFF7BBFED0
:1023000007EBC4103044414600F031F8641C24B29D
:10231000AC42EBDBBDE8F081C801002010B50246FD
:1023200040210348FEF7DFFBBDE81040FFF714BE75
:102330000004024010B5024680210348FEF7D3FB9B
:10234000BDE81040FFF708BE0004024010B5044687
:10235000FFF728FE7820FFF708FE0020FFF705FEB4
:102360002046FFF702FEBDE81040FFF72ABE70B519
:102370000D460646FFF716FE7820FFF7F6FD4020D3
:10238000FFF7F3FD002404E0305DFFF7EEFD641C71
:10239000E4B2AC42F8D3BDE87040FFF712BE70471C
:1023A0007047000010B500211048FFF70BF808B186
:1023B000FEF72CFA04210D48FFF704F808B1FEF7E8
:1023C00025FA08210948FEF7FDFF08B1FEF71EFABD
:1023D0000021012000F00CF80021022000F008F894
:1023E0000021BDE81040032000F002B848000020A2
:1023F000B42900D9B421C82211FB02F1B422B1FBE7
:10240000F2F1084A323189B21268012805D0022857
:1024100005D0032800D1D1637047516370479163A1
:10242000704700004800002010B5002300280ED09F
:1024300000290CD0002A0AD0521ECC5C2CB1934249
:1024400003D2C4545B1C9BB2F7E70021C15410BDFA
:1024500070B50022F0B1E9B101E0521C92B28B5C80
:10246000002BFAD1002A0FD0002410E0002306E050
:10247000E518CE5C455DB54203D15B1C9BB293422F
:10248000F6D3934201D1204470BD641CA4B2035D15
:10249000002BEBD1002070BDFEF730BB30B593B000
:1024A00030216846FDF7A8FF14210CA8FDF7A4FF12
:1024B0001E480025016841F080510160006800F06D
:1024C000805011901A48016841F480410160006811
:1024D000022400F48040119001200090000401903B
:1024E0008001CDE90640082008904FF4A870CDE99E
:1024F000090404200B906846FEF784FC08B172B60C
:10250000FEE70CA90F2081E831004FF4A0500F9096
:102510004FF48050109005210CA8FEF789FB00288D
:1025200001D072B6FEE713B030BD00004038024063
:10253000007000400248016841F47001016070477A
:1025400088ED00E0F0B50268274B284D284E294F52
:10255000294C4FF0804C984209D0604507D0A842E2
:1025600005D0B04203D0B84201D0A04204D122F03D
:10257000700E4A6842EA0E0298421BD0604519D09C
:10258000A84217D0B04215D0B84213D0A04211D003
:102590001A4DA8420ED01A4DA8420BD0194DA84290
:1025A00008D0194DA84205D0184DA84202D0184DA8
:1025B000A84203D122F44075CA682A434D6922F02B
:1025C00080022A438D68C5620D688562984201D0F9
:1025D000A04201D109690163016841F00401016071
:1025E000012141610260F0BD000001400004004093
:1025F00000080040000C0040000401400040014081
:10260000004401400048014000180040001C004008
:102610000020004010B501F01F030121046A994019
:102620008C430462016A9A401143016210BD0000AC
:10263000F0B5036A026A22F001020262426884690C
:10264000124E24F073050C682C4323F002058B68AE
:102650002B430D4DA84201D0B04205D123F008070D
:10266000CB683B4323F00403A84201D0B04205D11C
:102670004D6922F4407215438A692A43426084619D
:10268000496841630362F0BD00000140000401405D
:10269000F0B5026A036A23F0100303624368846999
:1026A0000D6824F4E64444EA05248D6822F02002F3
:1026B00042EA05120F4D104EA84201D0B04206D199
:1026C000CF6822F0800242EA071222F04002A842BC
:1026D00001D0B04207D14D6923F4406343EA85033A
:1026E0008D6943EA850343608461496881630262BE
:1026F000F0BD00000000014000040140F0B5026A96
:10270000036A23F4807303624368C46922F400728D
:1027100024F073050C68124E2C438D6842EA0522A2
:102720000E4DA84201D0B04206D1CF6822F400621B
:1027300042EA072222F48062A84201D0B04207D1C7
:102740004D6923F4405343EA05138D6943EA0513A9
:102750004360C4614968C1630262F0BD000001408A
:102760000004014030B5046A026A22F48052026219
:102770004268C3690D6823F4E64343EA05238D6884
:1027800024F4005444EA0534084DA84202D0084D10
:10279000A84204D14D6922F4804242EA8512426087
:1027A000C36149680164046230BD0000000001405B
:1027B0000004014010B5806B0021C185FEF768FE62
:1027C00010BD01680C3151E8002F22F4907241E8ED
:1027D0000023002BF5D10168143151E8002F22F0BD
:1027E000010241E80023002BF5D1016B012909D139
:1027F00001680C3151E8002F22F0100241E800235B
:10280000002BF5D1202180F8421000210163704790
:1028100008B590F84210222901D0022008BD826834
:102820004FF480539A4201D1016921B1816A9A42E1
:102830001BD04AB10AE00268816A5268C2F30802FA
:102840000A80816A891C08E0026972B102685268D4
:1028500002F07F020A70816A491C8162C18D491EA3
:102860000904090CC18503D01BE002685268F1E736
:102870000168CA6822F02002CA600168CA6822F4AE
:102880008072CA6001684A6922F001024A6120210F
:1028900080F8421000214163026B012A03D0FEF749
:1028A000F5FF002008BD016301680C3151E8002FDD
:1028B00022F0100241E80023002BF5D101680A68DC
:1028C000D20602D50A6849680091818DFEF7DEFDC7
:1028D000E7E7000070B5044600680169E26821F48A
:1028E0004051114301612169A068E26908436169AF
:1028F000114308432168CA6849F20C639A430243B2
:10290000CA6020684169A26921F4407111434161A4
:1029100031492068884202D03049884202D1FEF70E
:1029200031FA01E0FEF71EFAE2690023192164255D
:102930003226B2F5004F626828D0A0FB0101930F48
:102940009200FDF791FC0146B0FBF5F06FF0180224
:10295000504301EB800006EB0010B0FBF5F000F0F7
:10296000F002B1FBF5F002EB0012B1FBF5F06FF0F5
:102970001803584301EB800006EB0010B0FBF5F0A4
:1029800000F00F0021681044886070BDA0FB0101B9
:1029900092185B41FDF768FC0146B0FBF5F00201BF
:1029A000B1FBF5F06FF01803584301EB800006EB24
:1029B000C000B0FBF5F000F0F80002EB4002B1FB04
:1029C000F5F0584301EB800006EBC000B0FBF5F0DA
:1029D00000F00700D6E7000000100140001401409D
:1029E00081628285C28500214164222180F84210E3
:1029F000016921B10168CA6842F48072CA60016845
:102A00004A6942F001024A610068C16841F0200150
:102A1000C160002070472DE9F843984617460D46DF
:102A20000446089E24E0701C22D0FEF761F8A0EB5B
:102A30000800B0421AD8CEB12068C168490717D53E
:102A4000802D15D0402D13D00168C94309070FD43C
:102A500001680025406800902046FFF7B2FE08207C
:102A6000606484F840500120BDE8F8830320FBE750
:102A70002068006835EA000004D00020B842D2D0B7
:102A80000020F1E70120F9E70148FEF71DBD000035
:102A900090000020FEE70907090E002804DB00F182
:102AA000E02080F80014704700F00F0000F1E020F3
:102AB00080F8141D70470000FEF728F8FFF7EEFCC1
:102AC000FFF794F8FFF7D0F8FFF718F9FFF732F99E
:102AD000FFF768FCFFF722F8FEF766FFFFF746F9FD
:102AE000FDF76AFEFFF779FA0021094A0846FFF769
:102AF000F1FAFFF7CFFBFFF7A7FB00BFFDF768FD7B
:102B000018B1FFF7A3FBFDF725FDFFF739F9F5E74E
:102B10001E2B00084FF04070E1EE100A7047E6AC43
:102B2000A2E8BF8EE4BDBFE794A8E699BAE883BDEA
:102B3000E88DAFE7AEB1EFBC8100E8AFB7E58F96A7
:102B4000E8B5B0E88DAFE789A900E88DAFE789A9BE
:102B5000E5B7B2E58F96E8B5B000E8AFB7E58F8A84
:102B6000E697B6E58F96E8B5B0E88DAFE789A9009E
:102B7000AA1B0000AA000000AA080000AA0000008A
:102B8000000000000000000000000102030406072E
:102B9000080900000000010203040000000000001A
:102BA00000000000000000000000000000F800002D
:102BB0000000000000333000000000160E00160E6A
:102BC0000000000000000000000040C07840C07815
:102BD0004000043F04043F040400007088FC0830F7
:102BE0000000001820FF211E0000F008F000E0188F
:102BF000000000211C031E211E0000F00888700048
:102C000000001E21232419272110000000160E00A9
:102C100000000000000000000000000000E01804B8
:102C20000200000000071820400000020418E00025
:102C300000000040201807000000404080F0804065
:102C400040000202010F01020200000000F000003B
:102C500000000101011F010101000000000000004F
:102C6000000000B070000000000000000000000044
:102C7000000000010101010101010000000000004D
:102C80000000003030000000000000000000806004
:102C90001804006018060100000000E01008081089
:102CA000E000000F102020100F00001010F80000AE
:102CB00000000020203F2020000000700808088845
:102CC0007000003028242221300000300888884815
:102CD00030000018202020110E000000C02010F845
:102CE000000000070424243F240000F80888880816
:102CF00008000019212020110E0000E0108888181B
:102D00000000000F112020110E0000380808C838FC
:102D100008000000003F00000000007088080888DC
:102D20007000001C222121221C0000E01008081065
:102D3000E0000000312222110F00000000C0C0009E
:102D400000000000003030000000000000C0C000A3
:102D50000000000080B070000000000080402010E3
:102D6000080000010204081020004040404040409C
:102D700040000404040404040400000810204080FF
:102D80000000002010080402010000704808080834
:102D9000F0000000003036010000C030C828E81004
:102DA000E0000718272423140B000000C038E000BF
:102DB0000000203C23020227382008F88888887009
:102DC0000000203F202020110E00C0300808080815
:102DD0003800071820202010080008F808080810FC
:102DE000E000203F202020100F0008F88888E80825
:102DF0001000203F20202320180008F88888E808C9
:102E00001000203F200003000000C03008080838F0
:102E1000000007182020221E020008F80800000801
:102E2000F808203F210101213F20000808F8080888
:102E300000000020203F2020000000000808F808C3
:102E40000800C08080807F00000008F888C0281833
:102E50000800203F20012638200008F80800000064
:102E60000000203F20202020300008F8F800F8F86B
:102E70000800203F003F003F200008F830C0000855
:102E8000F808203F200007183F00E010080808104D
:102E9000E0000F10202020100F0008F80808080894
:102EA000F000203F210101010000E0100808081097
:102EB000E0000F18242438504F0008F888888888CC
:102EC0007000203F2000030C3020007088080808A4
:102ED00038000038202121221C00180808F80808B2
:102EE00018000000203F2000000008F8080000083B
:102EF000F808001F202020201F000878880000C844
:102F00003808000007380E010000F80800F8000833
:102F1000F800033C0700073C03000818688080683D
:102F2000180820302C03032C30200838C800C8387B
:102F300008000000203F2000000010080808C838E2
:102F400008002038262120201800000000FE020280
:102F500002000000007F40404000000C30C0000034
:102F60000000000000010638C00000020202FE005E
:102F70000000004040407F000000002010080408CE
:102F80001020000000000000000000000000000011
:102F90000000808080808080808000020408000023
:102FA0000000000000000000000000008080808021
:102FB00000000019242222223F2008F8008080000F
:102FC0000000003F112020110E00000000808080D2
:102FD0000000000E112020201100000000808088D9
:102FE000F800000E112020103F200000808080801B
:102FF0000000001F222222221300008080F0888817
:1030000088180020203F2020000000008080808061
:103010008000006B94949493600008F80080808096
:103020000000203F210000203F20008098980000F1
:1030300000000020203F2020000000000080989821
:10304000000000C08080807F000008F800008080C1
:103050008000203F24022D302000000808F80000E6
:1030600000000020203F20200000808080808080A1
:103070008000203F20003F20003F008080008080B3
:10308000000000203F2100203F2000008080808041
:103090000000001F202020201F0080800080800072
:1030A000000080FFA12020110E0000000080808021
:1030B0008000000E112020A0FF8080808000808092
:1030C000800020203F2120000100000080808080BF
:1030D00080000033242424241900008080E08080B4
:1030E00000000000001F2020000080800000008001
:1030F0008000001F202020103F2080808000008062
:10310000808000010E300806010080800080008071
:1031100080800F300C030C300F0000808000808016
:1031200080000020312E0E31200080808000008041
:10313000808080818E7018060100008080808080F1
:1031400080000021302C2221300000000000807C13
:10315000020200000000003F404000000000FF00AD
:10316000000000000000FF0000000002027C800060
:1031700000000040403F0000000000804040800010
:1031800000800000000000010100000000000000BD
:103190000000002F000000000700070000147F144B
:1031A0007F1400242A7F2A12002313086462003649
:1031B0004955225000000007000000001C22410079
:1031C000000041221C000014083E08140008083EBC
:1031D0000808000000A060000008080808080000B7
:1031E00060600000002010080402003E5149453E86
:1031F0000000427F400000426151494600214145A4
:103200004B31001814127F10002745454539003C0A
:103210004A494930000171090503003649494936D8
:1032200000064949291E00003636000000005636C7
:1032300000000008142241000014141414140000AB
:1032400041221408000201510906003E4955592E39
:10325000007C1211127C007F49494936003E4141F1
:103260004122007F4141221C007F49494941007FA2
:1032700009090901003E4149497A007F0808087F91
:103280000000417F4100002040413F01007F0814C1
:103290002241007F40404040007F020C027F007FBF
:1032A0000408107F003E4141413E007F09090906A4
:1032B000003E4151215E007F0919294600464949D7
:1032C00049310001017F0101003F4040403F001FA4
:1032D0002040201F003F4038403F00631408146323
:1032E00000070870080700615149454300007F410D
:1032F0004100000204081020000041417F0000044A
:10330000020102040040404040400000010204006D
:10331000002054545478007F4844443800384444D2
:10332000442000384444487F00385454541800085E
:103330007E0901020018A4A4A47C007F080404787C
:103340000000447D4000004080847D00007F102804
:1033500044000000417F4000007C04180478007C99
:103360000804047800384444443800FC2424241819
:103370000018242418FC007C080404080048545455
:10338000542000043F444020003C4040207C001C6E
:103390002040201C003C4030403C00442810284481
:1033A000001CA0A0A07C004464544C440000087F92
:1033B00041000000007F00000000417F080000087D
:1033C00004081008EFBC8C000000000000000000A2
:1033D000000000000000000000005838000000005D
:1033E0000000000000000000E380820000000000F8
:1033F0000000000000000000000000000000182491
:10340000241800000000000000000000E4BDA0003F
:10341000008060F8074020180F08C8080828180026
:10342000010000FF00100C0340807F00010618001F
:10343000E5A5BD001010F01F10F000808282E2921E
:103440008A868000402215081661000040807F00B7
:1034500000000000E4B89600202020FE2020FF207D
:103460002020FF20202020000000007F4040474413
:103470004444474040400000E7958C00000000FEB7
:10348000929292FE929292FE00000000080804843C
:10349000621E010001FE020404080800E6ACA2005E
:1034A00004244484649C40300FC808082818000095
:1034B00010080601824C20180601061820408000E2
:1034C000E8BF8E00404042CC0000FC040200FC0437
:1034D00004FC00000040201F20404F4442407F4237
:1034E00044434000E4BDBF008060F80704E42424A6
:1034F00024FF242424E404000000FF0080814529E7
:10350000112F414181818000E794A8000000FE2234
:10351000222222FE22222222FE00000080601F02C0
:103520000202027F020242827F000000E699BA0096
:10353000109453321E325210007E4242427E0000EE
:10354000000000FF49494949494949FF000000007E
:10355000E883BD0008CC4A49484ACC18007F8888D7
:103560008482E00000FF121252927F00007E888861
:103570008482E000E88DAF0004844434048F048426
:10358000744F444444C4040049C94D2B2928010008
:10359000020C4080403F0000E7AEB10020908C87D5
:1035A000EC948414C847444C54C4040040201806CA
:1035B000FF041800FF92929292FF0000E8AFB7005C
:1035C0004042CC0000445454547F5454544440006E
:1035D00000007F201000FF15151555957F00000095
:1035E000E58F96000202FE929292FE0206FC04040F
:1035F00004FC000008180F080804FF048440271882
:1036000027408000E8B5B00040404848484848FF9F
:1036100048484848484040008040201E2040407FA5
:103620004444444444404000E88DAF0004844434A2
:10363000048F0484744F444444C4040049C94D2B8E
:1036400029280100020C4080403F0000E789A900C2
:10365000403C10FF101020108F7808F808F8000088
:10366000020602FF0101044221184681403F00008A
:10367000E5B7B2000000E28282828282828282FE0C
:103680000000000000003F404040404040404040BB
:1036900040780000E58F8A0000000202FE428202AC
:1036A00042724E40C00000008040300C8380414692
:1036B0002810284641808000E697B60000FC8484EC
:1036C00084FC001010101010FF101000003F1010AC
:1036D000103F0000010640807F0000000000000055
:1036E000FF0101013109090909897101010101FF86
:1036F000FF8080808080809681808080808080FFB5
:10370000203700080000002048000000C401000825
:103710006837000848000020E00B0000E0010008C6
:10372000000000000000000000000000000802404F
:103730000400000000000000000802400800000033
:10374000000000000008024010000000000000001F
:103750000000000000000000010000001000000058
:08376000000000000024F40049
:040000050800018965
:00000001FF
