:020000040800F2
:100000005804002045010008C9110008F70F000836
:10001000C5110008E5010008CD140008000000002B
:100020000000000000000000000000005701000870
:10003000E9010008000000005B010008F51100085C
:100040005F0100085F0100085F0100085F01000810
:100050005F0100085F0100085F0100085F01000800
:100060005F0100085F0100085F0100085F010008F0
:100070005F0100085F0100085F0100085F010008E0
:100080005F0100085F0100085F0100085F010008D0
:100090005F0100085F0100085F0100085F010008C0
:1000A0005F0100085F0100085F0100085F010008B0
:1000B0005F0100085F0100085F0100085F010008A0
:1000C0005F0100085F0100085F0100085F01000890
:1000D0005F0100085F0100085F0100085F01000880
:1000E0005F0100085F0100085F0100085F01000870
:1000F0005F0100085F0100085F0100085F01000860
:100100005F0100085F0100085F0100085F0100084F
:100110005F0100085F0100085F0100085F0100083F
:100120005F0100085F0100085F0100085F0100082F
:10013000DFF80CD000F044F8004800473D150008F7
:10014000580400200648804706480047FEE7FEE7BF
:10015000FEE7FEE7FEE7FEE7FEE7FEE7FEE7FEE777
:10016000691200083101000840EA01039B0703D02F
:1001700009E008C9121F08C0042AFAD203E011F8E6
:10018000013B00F8013B521EF9D27047D2B201E0A8
:1001900000F8012B491EFBD270470022F6E710B58C
:1001A00013460A4604461946FFF7F0FF204610BDE5
:1001B000421C10F8011B0029FBD1801A7047000077
:1001C000064C074D06E0E06840F0010394E80700A4
:1001D00098471034AC42F6D3FFF7AEFFCC150008B9
:1001E000EC15000800BFFEE700BFFEE770B504464F
:1001F00000F0B0F906462546681C10B104480078A6
:10020000054400BF00F0A6F9801BA842FAD370BDD8
:10021000080000202DE9F847024600239C467BE1B8
:100220004FF0010808FA03F4D1F8008008EA04004E
:10023000A0427DD1DFF8F4A2D1F80480A8EB0A092E
:10024000D0453AD014DCB8F1030F50D009DCB8F136
:10025000000F31D0B8F1010F1CD0B8F1020F49D115
:1002600020E0B8F1110F18D0B8F1120F42D11EE002
:10027000B9F5881F25D006DCB9F5803F20D0B9F547
:10028000801F37D11AE0B9F5001F18D0B9F5041F47
:1002900030D117E0D1F80CC02DE0D1F80C8008F176
:1002A000040C28E0D1F80C8008F1080C23E0D1F808
:1002B0000C8008F10C0C1EE000BF00BF00BF00BFA7
:1002C00000BF00BFD1F80880B8F1000F02D14FF095
:1002D000040C0BE0D1F80880B8F1010F03D14FF006
:1002E000080C146102E04FF0080C546103E04FF079
:1002F000000C00E000BF00BFFF2801D8904601E0DD
:1003000002F104084646FF2802D84FEA830803E0BA
:10031000A3F108084FEA88084746D6F800804FF056
:100320000F0909FA07F928EA09080CFA07F900E0A9
:100330007AE048EA0908C6F80080D1F8048008F09D
:100340008058B8F1805F6FD100BFDFF8E481D8F842
:10035000188048F00108DFF8D891C9F81880C8461D
:10036000D8F8188008F00108CDF8008000BF00BF61
:100370004FEAB9384FEA930958F829504FEA837881
:100380004FEA18794FF00F0808FA09F825EA08052E
:10039000DFF8A081424502D14FF0000824E0DFF8E9
:1003A0009881424502D14FF001081DE0DFF88C81B1
:1003B000424502D14FF0020816E0DFF88481424541
:1003C00002D14FF003080FE0DFF87881424502D1F7
:1003D0004FF0040808E0DFF87081424502D14FF089
:1003E000050801E04FF006084FEA83794FEA1979D2
:1003F00008FA09F848EA0505DFF850814FEA930941
:1004000048F82950D1F8048008F48038B8F5803FC6
:100410000BD1DFF83C81D8F8008048EA0008DFF80B
:100420003091C9F800800AE075E0DFF82481D8F83F
:10043000008028EA0008DFF81891C9F80080D1F898
:10044000048008F40038B8F5003F0ED1DFF80081D1
:1004500008F10408D8F8008048EA0008DFF8F090B6
:1004600009F10409C9F800800DE0DFF8E48008F123
:100470000408D8F8008028EA0008DFF8D49009F1D1
:100480000409C9F80080D1F8048008F48018B8F590
:10049000801F0ED1DFF8B88008F10808D8F8008076
:1004A00048EA0008DFF8A89009F10809C9F80080B7
:1004B0000DE0DFF89C8008F10808D8F8008028EAF1
:1004C0000008DFF88C9009F10809C9F80080D1F81C
:1004D000048008F40018B8F5001F0ED1DFF8708012
:1004E00008F10C08D8F8008048EA0008DFF86090AE
:1004F00009F10C09C9F800800DE0DFF8548008F11B
:100500000C08D8F8008028EA0008DFF8449009F1C8
:100510000C09C9F800805B1CD1F8008028FA03F8A8
:10052000B8F1000F7FF47CAEBDE8F8870000111031
:100530000010024000080140000C01400010014082
:100540000014014000180140001C01400800014057
:1005500000040140014800687047000000000020CE
:100560000348006803490978084401490860704756
:10057000000000200800002010B50848006840F086
:10058000100006490860032000F0B0F8002000F0D9
:1005900007F800F02BF8002010BD000000200240FA
:1005A00070B504460E4800784FF47A71B1FBF0F054
:1005B0000C490968B1FBF0F5284600F028FC08B1A9
:1005C000012070BD102C07D200222146501E00F0E1
:1005D0004FF80548046001E00120F2E70020F0E751
:1005E000080000200C0000200400002008B500BF17
:1005F0001648806940F00100144988610846806906
:1006000000F00100009000BF00BF052000F06EF870
:10061000002211466FF00B0000F02AF8002211466C
:100620006FF00A0000F024F8002211466FF0090074
:1006300000F01EF800221146101F00F019F80022E9
:100640001146501E00F014F808BD000000100240D2
:1006500001460846002809DB00F01F0301229A40EA
:1006600043099B0003F1E023C3F8002100BF70475A
:100670002DE9F05F80460D461646002700F028FF62
:10068000074639462A46334601F00700C0F1070AFB
:10069000BAF1040F02D94FF0040A01E0C0F1070AD1
:1006A000D14600F1040ABAF1070F02D24FF0000A56
:1006B00001E0A0F1030AD4464FF0010A0AFA09FA50
:1006C000AAF1010A0AEA020A0AFA0CFA4FF0010B2F
:1006D0000BFA0CFBABF1010B0BEA030B4AEA0B0420
:1006E0002146404600F0FCFEBDE8F09F00BF00F050
:1006F0000702064B19684FF6FF031940044B0B43E2
:1007000043EA0221014B196000BF70470CED00E085
:100710000000FA0570B504460D460CB9012070BD05
:100720005A48006800F00700A8420ED257480068F7
:1007300020F007002843554908600846006800F08B
:100740000700A84201D00120E9E7207800F002006C
:1007500002281DD1207800F00400042805D14C485F
:10076000406840F4E0604A494860207800F00800A2
:10077000082805D14648406840F460504449486024
:100780004348406820F0F000A168084340494860B1
:10079000207800F0010078B36068012806D13C4859
:1007A000006800F4003090B90120B8E760680228C2
:1007B00006D13748006800F0007040B90120AEE76C
:1007C0003348006800F0020008B90120A7E730486C
:1007D000406820F00300616808432D494860FFF736
:1007E000B9FE064609E0FFF7B5FE801B41F28831ED
:1007F000884202D9032092E707E02548406800F0CC
:100800000C006168B0EB810FEDD12048006800F06A
:100810000700A8420ED91D48006820F007002843B1
:100820001A4908600846006800F00700A84201D095
:10083000012074E7207800F00400042807D1144850
:10084000406820F4E060E16808431149486020787E
:1008500000F00800082808D10D48406820F46050D6
:10086000216940EAC1000A49486000F03FF80849A0
:100870004968C1F30311074A515CC8400649086042
:1008800006480068FFF78CFE002048E70020024081
:1008900000100240A01500080C00002004000020F9
:1008A00001480068704700000C00002000B5FFF709
:1008B000F7FF04494968C1F30221034A515CC8406B
:1008C00000BD000000100240B015000800B5FFF7A1
:1008D000E7FF04494968C1F3C221034A515CC8409B
:1008E00000BD000000100240B0150008F0B585B052
:1008F0000FF26C0C9CE8E01001A8A0E8E0101CA529
:100900002D68009500210022002300240020194DAD
:10091000696801F00C05F5B1042D02D0082D19D13C
:1009200001E0154819E001ADC1F38346AC5D01F467
:10093000803555B10F4D6D68C5F340451DF8052054
:100940000D4D6543B5FBF2F302E00C4D04FB05F3DE
:10095000184602E000BF084800BF00BF05B0F0BD68
:1009600002030405060708090A0B0C0D0E0F1010F0
:10097000010200000010024000127A0000093D0050
:10098000F8B504460CB90120F8BD207800F001004C
:10099000002878D0F848406800F00C0004280CD0FB
:1009A000F548406800F00C00082811D1F248406872
:1009B00000F48030B0F5803F0AD1EF48006800F4C1
:1009C000003000285FD0606800285CD10120DBE7A0
:1009D00000BF6068B0F5803F06D1E748006840F48A
:1009E0008030E549086028E0606858B9E24800684E
:1009F00020F48030E04908600846006820F4802038
:100A000008601AE06068B0F5A02F0BD1DA480068E2
:100A100040F48020D84908600846006840F48030DF
:100A200008600AE0D448006820F48030D2490860A9
:100A30000846006820F48020086000BF606888B124
:100A4000FFF788FD054606E0FFF784FD401B64289C
:100A500001D9032098E7C848006800F40030002856
:100A6000F2D010E0FFF776FD054606E0FFF772FDD5
:100A7000401B642801D9032086E7BF48006800F4C2
:100A800000300028F2D1207800F00200022857D16F
:100A9000B948406800F00C0050B1B748406800F019
:100AA0000C00082818D1B448406800F4803098B988
:100AB000B148006800F0020020B12069012801D08F
:100AC000012061E7AC48006820F0F800616940EA65
:100AD000C100A949086033E02069E8B10120A749B5
:100AE0000860FFF737FD054606E0FFF733FD401BC2
:100AF000022801D9032047E79F48006800F0020060
:100B00000028F2D09C48006820F0F800616940EAB3
:100B1000C1009949086013E0002098490860FFF778
:100B200019FD054606E0FFF715FD401B022801D917
:100B3000032029E79048006800F002000028F2D165
:100B4000207800F0080008282DD1A069B8B1012054
:100B50008B490860FFF7FEFC054606E0FFF7FAFC4C
:100B6000401B022801D903200EE78348406A00F0A9
:100B700002000028F2D0012000F028FB13E0002042
:100B80007F490860FFF7E6FC054606E0FFF7E2FC58
:100B9000401B022801D90320F6E67748406A00F09E
:100BA00002000028F2D1207800F00400042873D15C
:100BB00000277148C06900F0805070B900BF6E48CE
:100BC000C06940F080506C49C8610846C06900F0B7
:100BD0008050009000BF00BF01276A48006800F401
:100BE0008070B0B96748006840F48070654908605B
:100BF000FFF7B0FC054606E0FFF7ACFC401B64289D
:100C000001D90320C0E65F48006800F48070002826
:100C1000F2D000BFE068012806D15748006A40F0D2
:100C200001005549086227E0E06858B95248006A57
:100C300020F00100504908620846006A20F00400D4
:100C4000086219E0E06805280BD14B48006A40F0C3
:100C50000400494908620846006A40F00100086241
:100C60000AE04548006A20F001004349086208464E
:100C7000006A20F00400086200BFE068A0B1FFF73E
:100C800069FC054609E0FFF765FC401B41F288312D
:100C9000884202D9032077E622E03748006A00F054
:100CA00002000028EFD012E0FFF754FC054608E0F0
:100CB000FFF750FC401B41F28831884201D90320E4
:100CC00062E62D48006A00F002000028F0D1012FF2
:100CD00005D12948C06920F080502749C86100BF6C
:100CE000E069C8B32448406800F00C00082860D0D0
:100CF000E069022848D1002020490866FFF72AFC55
:100D0000054606E0FFF726FC401B022801D9032018
:100D10003AE61948006800F000700028F2D1206A15
:100D2000B0F5803F07D11448406820F40030A16836
:100D3000084311494860D4E9080108430E4949684D
:100D400021F4741108430C49486001200B490866DE
:100D5000FFF700FC054607E03DE0FFF7FBFB401B0B
:100D6000022801D903200FE60348006800F0007054
:100D70000028F2D02FE000000010024000004242A4
:100D80008004424200700040002014490866FFF7CA
:100D9000E1FB054606E0FFF7DDFB401B022801D919
:100DA0000320F1E50E48006800F000700028F2D141
:100DB00011E0E069012800D1E6E50948466806F43B
:100DC0008031206A814204D106F47011606A814248
:100DD00001D00120D8E50020D6E500000000424205
:100DE00000100240042808D14FF0E021096941F0C9
:100DF00004014FF0E022116107E04FF0E0210969A2
:100E000021F004014FF0E02211617047704770B586
:100E100004462546681EB0F1807F01D301200FE013
:100E2000681E4FF0E02148610F214FF0FF3000F0C5
:100E300057FB00204FF0E021886107200861002067
:100E400070BD10B5FFF7E2FF10BD10B504460CB938
:100E5000012010BDA06900B100E000BF94F8390086
:100E600028B9002084F83800204600F027F8242014
:100E700084F839002068C06820F400502168C860F8
:100E8000204600F01DFA2068006920F49040216897
:100E900008612068406920F02A00216848612068C4
:100EA000C06840F400502168C8600020E063202042
:100EB00084F8390084F83A000020CAE710B586B0FB
:100EC000044614492068884221D100BF1248806935
:100ED00040F48040104988610846806900F48040F1
:100EE000019000BF00BF481502900220039003202C
:100EF000059002A90948FFF78DF94FF48060029030
:100F000000200390049002A90448FFF783F906B07B
:100F100010BD0000003801400010024000080140F0
:100F20002DE9F84304460D4616461F464FF00009CA
:100F300094F8390020285CD105B116B90120BDE82C
:100F4000F88300BF94F83800012801D10220F6E7A9
:100F5000012084F8380000BF0020E063212084F8DD
:100F60003900FFF7F7FA8146A684E6842BE0E08C8F
:100F7000401EE084A068B0F5805F16D14B46002289
:100F800080212046009700F06BFA08B10320D6E7D5
:100F9000A846B8F80000C0F308002168486020693E
:100FA00008B9AD1C0FE06D1C0DE04B4600228021FE
:100FB0002046009700F054FA08B10320BFE715F867
:100FC000010B21684860E08C0028D0D14B460022FC
:100FD00040212046009700F043FA08B10320AEE715
:100FE000202084F8390000BF002084F8380000BFBA
:100FF000A5E70220A3E700BFFEE700007CB5054699
:101000000C46294903C9CDE9000100268DF801509D
:10101000072D1BD0192D19D018D0222D16D0232D15
:1010200014D001208DF802008DF803409DF80000D7
:101030009DF8011008449DF8021008449DF8031023
:101040000844C0B28DF80400052624E002208DF883
:1010500002002046E11704EB1161090A8DF8031024
:10106000E11704EB11610912A4EB0121C9B28DF85B
:1010700004109DF800009DF8011008449DF802102E
:1010800008449DF8031008449DF804100844C0B2B9
:101090008DF8050006264FF6FF7332466946034871
:1010A000FFF73EFF7CBD0000C015000814000020C3
:1010B00070470000F0B58DB007460D46302101A8FD
:1010C000FFF76BF82348006800902846FFF770F898
:1010D000401DC0B28DF802008DF80370042406E0B4
:1010E0002A782046611CCCB20DF800206D1C2878AF
:1010F0000028F5D12A222046611CCCB20DF8002030
:101100003F222046611CCCB20DF800202046611C15
:10111000CCB20DF800202046611CCCB20DF80020A6
:10112000002609E01DF804001DF806100844C0B2AE
:101130000DF80400701CC6B2A642F3DB601CC4B2FA
:101140004FF6FF73224669460348FFF7E9FE0DB0EC
:10115000F0BD0000C81500081400002010B50022E2
:1011600001212520FFF784FA2520FFF771FA10BD31
:1011700008B500BF1048806940F004000E4988613E
:101180000846806900F00400009000BF00BF0B48D3
:101190000B4908604FF416504860002108488160F0
:1011A000C16001610C21416100218161C161FFF7D2
:1011B0004CFEFFF7D3FF08BD00100240003801408D
:1011C0001400002000BFFEE77047000008B5084982
:1011D0000968C9084FF47A72B1FBF2F141430091FA
:1011E00000BF00BF00994A1E00920029F9D108BD36
:1011F0000C00002010B5FFF7B3F9FFF722FE10BD79
:1012000010B590B0012006900004079000200890CF
:1012100002200D90C1030E914FF4E0110F9106A82A
:10122000FFF7AEFB0F2001900220029000200390F8
:101230004FF48060049000200590022101A8FFF780
:1012400069FAFFF72DFB4FF47A71B0FBF1F42046F9
:10125000FFF7DDFD0420FFF7C5FD00221146501EFB
:10126000FFF706FA10B010BD1148006840F0010009
:101270000F490860084640680E4908400C4948601C
:10128000084600680C49084009490860084600689B
:1012900020F4802008600846406820F4FE00486082
:1012A0004FF41F008860C8030449086070470000BD
:1012B000001002400000FFF8FFFFF6FE08ED00E01E
:1012C00070B504462168096921F44051E268114370
:1012D000226811612269A1681143626941EA02052D
:1012E0002168C96841F20C62914329432268D160A8
:1012F0002168496921F44071A26911432268516152
:10130000564A2168914254D1FFF7E0FA00EBC00140
:1013100001EB001162689200B1FBF2F100EBC00238
:1013200002EB001263689B00B2FBF3F26423B2FB92
:10133000F3F202EBC20303EB0212A1EB82013222B1
:1013400002EB01116422B1FBF2F101F0F00100EBBC
:10135000C00202EB001263689B00B2FBF3F264234D
:10136000B2FBF3F201EB021200EBC00101EB001142
:1013700063689B00B1FBF3F100EBC00303EB0013C8
:101380006668B600B3FBF6F36426B3FBF6F303EB33
:10139000C30606EB0313A1EB8301322303EB011118
:1013A0006423B1FBF3F101F00F0111442268916055
:1013B00053E0FFF77BFA00EBC00101EB001162681C
:1013C0009200B1FBF2F100EBC00202EB0012636885
:1013D0009B00B2FBF3F26423B2FBF3F202EBC20315
:1013E00003EB0212A1EB8201322202EB0111642213
:1013F000B1FBF2F101F0F00100EBC00202EB0012D0
:1014000063689B00B2FBF3F26423B2FBF3F201EBDF
:10141000021200EBC00101EB001163689B00B1FBFD
:10142000F3F100EBC00303EB00136668B600B3FBF7
:10143000F6F36426B3FBF6F303EBC30606EB0313E4
:10144000A1EB8301322303EB01116423B1FBF3F120
:1014500001F00F0111442268916070BD0038014015
:101460002DE9F04104460D4617469846069E21E0B8
:10147000701CF8B12EB1FFF76DF8A0EB0800B04278
:1014800018D92068C06820F4D0702168C86020682E
:10149000406920F0010021684861202084F839006B
:1014A00084F83A0000BF002084F8380000BF032011
:1014B000BDE8F081206800682840A84201D10120E1
:1014C00000E00020B842D3D00020F1E700BFFEE7E3
:1014D00002480068C0F30220704700000CED00E0F5
:1014E00010B5002804DB0A07130E054A135406E062
:1014F0000A07140E034A00F00F031B1FD45410BD3B
:1015000000E400E018ED00E002E008C8121F08C186
:10151000002AFAD170477047002001E001C1121F74
:10152000002AFBD17047000010B504460420FFF7E5
:1015300059FC0148046010BD1000002086B018223C
:1015400011A16846FEF710FEFFF716F8FFF758FEE8
:101550004820FFF7E9FFFFF70BFEFFF7A9FD4FF467
:10156000FA70FEF743FE1E211320FFF747FD0A2005
:10157000FEF73CFE02210720FFF740FD69460220EE
:10158000FFF798FD00BFFEE72FB2E2CAD4312A2F41
:10159000B2E2CAD4322A2F3030303032000000009C
:1015A0000000000000000000010203040607080913
:1015B0000000000001020304AA1B0000AA000000B2
:1015C000AA00000000000000AA080000EC150008B6
:1015D0000000002014000000081500080016000894
:1015E000140000204404000018150008000000004A
:1015F00010000000010000000024F40000000000C2
:0400000508000131BD
:00000001FF
